{
  "_format": "hh-sol-artifact-1",
  "contractName": "Payroll",
  "sourceName": "contracts/Payroll.sol",
  "abi": [
    {
      "inputs": [
        {
          "internalType": "address payable[]",
          "name": "payees",
          "type": "address[]"
        },
        {
          "internalType": "uint256[]",
          "name": "amounts",
          "type": "uint256[]"
        }
      ],
      "name": "send",
      "outputs": [],
      "stateMutability": "payable",
      "type": "function"
    }
  ],
  "bytecode": "0x6080604052348015600f57600080fd5b506104718061001f6000396000f3fe60806040526004361061001e5760003560e01c8063a645ff5f14610023575b600080fd5b61003d60048036038101906100389190610217565b61003f565b005b818190508484905014610087576040517f08c379a000000000000000000000000000000000000000000000000000000000815260040161007e9061031b565b60405180910390fd5b60005b8484905081101561014b578484828181106100a8576100a761033b565b5b90506020020160208101906100bd91906103c8565b73ffffffffffffffffffffffffffffffffffffffff168383838181106100e6576100e561033b565b5b905060200201356040516100f990610426565b60006040518083038185875af1925050503d8060008114610136576040519150601f19603f3d011682016040523d82523d6000602084013e61013b565b606091505b505050808060010191505061008a565b5050505050565b600080fd5b600080fd5b600080fd5b600080fd5b600080fd5b60008083601f8401126101815761018061015c565b5b8235905067ffffffffffffffff81111561019e5761019d610161565b5b6020830191508360208202830111156101ba576101b9610166565b5b9250929050565b60008083601f8401126101d7576101d661015c565b5b8235905067ffffffffffffffff8111156101f4576101f3610161565b5b6020830191508360208202830111156102105761020f610166565b5b9250929050565b6000806000806040858703121561023157610230610152565b5b600085013567ffffffffffffffff81111561024f5761024e610157565b5b61025b8782880161016b565b9450945050602085013567ffffffffffffffff81111561027e5761027d610157565b5b61028a878288016101c1565b925092505092959194509250565b600082825260208201905092915050565b7f4e756d626572206f66207061796565732073686f756c64206d6174636820746860008201527f65206e756d626572206f66207061796d656e7420616d6f756e74730000000000602082015250565b6000610305603b83610298565b9150610310826102a9565b604082019050919050565b60006020820190508181036000830152610334816102f8565b9050919050565b7f4e487b7100000000000000000000000000000000000000000000000000000000600052603260045260246000fd5b600073ffffffffffffffffffffffffffffffffffffffff82169050919050565b60006103958261036a565b9050919050565b6103a58161038a565b81146103b057600080fd5b50565b6000813590506103c28161039c565b92915050565b6000602082840312156103de576103dd610152565b5b60006103ec848285016103b3565b91505092915050565b600081905092915050565b50565b60006104106000836103f5565b915061041b82610400565b600082019050919050565b600061043182610403565b915081905091905056fea2646970667358221220127501dd754cdfbab358cc5e78ef5aa18df66eca839e3be0747b8aecf997959864736f6c63430008190033",
  "linkReferences": {},
  "deployedLinkReferences": {}
}